:100000000C9462000C948A000C948A000C948A0070
:100010000C948A000C948A000C948A000C948A0038
:100020000C948A000C948A000C948A000C948A0028
:100030000C948A000C948A000C948A000C948A0018
:100040000C9464030C948A000C948A000C948A002B
:100050000C948A000C948A000C948A000C948A00F8
:100060000C948A000C948A000000000024002700F1
:100070002A0000000000250028002B0000000000DE
:1000800023002600290004040404040404040202DA
:100090000202020203030303030301020408102007
:1000A0004080010204081020010204081020000012
:1000B0000008000201000003040700000000000027
:1000C0000000930511241FBECFEFD8E0DEBFCDBFE7
:1000D00011E0A0E0B1E0E8E6FCE002C005900D927E
:1000E000AA34B107D9F721E0AAE4B1E001C01D921A
:1000F000AA3DB207E1F710E0C2E6D0E004C02197C4
:10010000FE010E942C06C136D107C9F70E94AE033A
:100110000C9432060C94000096E0899FD0011124C3
:10012000AD5ABE4F90967C936E935F9791E09196F7
:100130009C939197E091C001F091C1019091BF0112
:10014000992339F0309751F0811108C080916F01E7
:100150000994309719F05C968C91FACF089583300A
:1001600081F028F4813099F08230A9F00895873029
:10017000A9F08830C9F08430B1F4809180008F7D7F
:1001800003C0809180008F7780938000089584B5AC
:100190008F7784BD089584B58F7DFBCF8091B000AB
:1001A0008F778093B00008958091B0008F7DF9CF54
:1001B000CF93DF93282F30E0F901E255FF4F849170
:1001C000F901E656FF4FD491F901EA57FF4FC49168
:1001D000CC23A1F081110E94AF00EC2FF0E0EE0FD4
:1001E000FF1FE458FF4FA591B491EC91ED2381E0FE
:1001F00090E009F480E0DF91CF91089580E090E0F5
:10020000FACF1F93CF93DF93282F30E0F901E25507
:10021000FF4F8491F901E656FF4FD491F901EA5757
:10022000FF4FC491CC23A9F0162F81110E94AF007B
:10023000EC2FF0E0EE0FFF1FEE58FF4FA591B491A9
:100240008FB7F894EC91111108C0D095DE23DC93A0
:100250008FBFDF91CF911F910895DE2BF8CFCF9301
:10026000DF9390E0FC01E656FF4F24918A579F4FA1
:10027000FC0184918823C9F090E0880F991FFC014C
:10028000E859FF4FA591B491FC01EE58FF4FC5917D
:10029000D49161110DC09FB7F8948C912095822361
:1002A0008C938881282328839FBFDF91CF91089565
:1002B000623051F49FB7F8943C91822F809583234C
:1002C0008C93E8812E2BEFCF8FB7F894EC912E2BE7
:1002D0002C938FBFEACF2FB7F89460914F017091A4
:1002E000500180915101909152012FBF08950F93B9
:1002F0001F93CF93DF93C82FD62F86E0C89FF001BE
:100300001124ED5AFE4F11A2878D90A181309105E5
:10031000F1F058F082309105F1F1039709F440C0F3
:10032000DF91CF911F910F9108956623C9F361E08A
:1003300070E08C2F0E948C000E946B016093AB01D7
:100340007093AC018093AD019093AE01E9CF0E9410
:100350006B010091AB011091AC012091AD01309186
:10036000AE01AB01BC01401B510B620B730B8091C2
:10037000BD019091BE01B0E0A0E084179507A607EB
:10038000B70748F462E070E08C2FDF91CF911F91A6
:100390000F910C948C0063E070E0D111C1CFF4CFC9
:1003A00070E060E0F1CF862F642F0C942F01862F30
:1003B000642F0C940101862F0C94D800AF92BF9249
:1003C000CF92DF92EF92FF920F931F93CF93DF9321
:1003D0006C017B018B01040F151FEB015E01AE1850
:1003E000BF08C017D10759F06991D601ED91FC9172
:1003F0000190F081E02DC6010995892B79F7C5019F
:10040000DF91CF911F910F91FF90EF90DF90CF90F0
:10041000BF90AF900895089590E080E00895FC01AA
:1004200001900020E9F73197AF01481B590BBC013F
:1004300082EC91E00C94DE01CF93DF93EC0160E05D
:100440008E810E94010161E08E810E94010160E0C5
:100450008E810E9401018BE891E00197F1F7DF9115
:10046000CF910895CF92DF92EF92FF920F931F9357
:10047000CF93DF936C017C0187E0E80EF11CD0E0A4
:10048000C0E0062F10E0B8010C2E02C075956795EC
:100490000A94E2F76170F70181917F010E940101E6
:1004A0002196C430D10579F7C601DF91CF911F9114
:1004B0000F91FF90EF90DF90CF900C941C02CF92A1
:1004C000DF92EF92FF920F931F93CF93DF93EC0194
:1004D000F62E642F8C810E9401018D818F3F19F0CF
:1004E00060E00E9401010F2D10E08F8584FF25C080
:1004F0006E0187E0C80ED11CF12CE12CB8010E2C46
:1005000002C0759567950A94E2F76170F6018191D2
:100510006F010E940101FFEFEF1AFF0A88E0E81661
:10052000F10461F7CE01DF91CF911F910F91FF9000
:10053000EF90DF90CF900C941C02B80184E0759589
:1005400067958A95E1F7CE010E9432026F2DCE01A8
:10055000DF91CF911F910F91FF90EF90DF90CF909F
:100560000C94320240E0682F82EC91E00C945F0220
:10057000CF93DF93823029F49091D10198609093CA
:10058000D1018093D5011092D60180E48093D701E8
:1005900080E18093D80180E58093D90161E080916A
:1005A000C6010E942F018091C7018F3F19F061E0C1
:1005B0000E942F0161E08091C8010E942F01C2ECCE
:1005C000D1E09E01225C31408091D10184FD0BC0BD
:1005D00084E090E021962817390744F461E08E8189
:1005E0000E942F01EECF88E090E0F4CF8BE39DE0F6
:1005F0000197F1F760E08091C6010E94010160E07F
:100600008091C8010E9401018091C7018F3F19F0BC
:1006100060E00E9401018091D10184FD39C063E056
:1006200082EC91E00E943202CBE4D6E4CE01019745
:10063000F1F763E082EC91E00E9432022197F1F73A
:1006400063E082EC91E00E94320283E592E0019740
:10065000F1F762E082EC91E00E9432028091D101D8
:1006600080620E94B20284E08093D2018CE00E94FA
:10067000B20281E00E94B2028BE39FE10197F1F7A1
:1006800082E08093D30186E0DF91CF910C94B20297
:1006900080620E94B2028BE496E40197F1F78091A8
:1006A000D10180620E94B20283E592E00197F1F7E6
:1006B0008091D10180620E94B202D0CF41E00E94BD
:1006C0005F0281E090E008951F920F920FB60F92A3
:1006D00011242F933F938F939F93AF93BF93809158
:1006E0004F0190915001A0915101B0915201309170
:1006F0004E0123E0230F2D3758F50196A11DB11DA2
:1007000020934E0180934F0190935001A09351018B
:10071000B093520180914A0190914B01A0914C01FC
:10072000B0914D010196A11DB11D80934A01909396
:100730004B01A0934C01B0934D01BF91AF919F919C
:100740008F913F912F910F900FBE0F901F90189592
:1007500026E8230F0296A11DB11DD2CFCF93DF93C0
:10076000CDB7DEB7A1970FB6F894DEBF0FBECDBFF1
:10077000789484B5826084BD84B5816084BD85B57C
:10078000826085BD85B5816085BD80916E00816088
:1007900080936E001092810080918100826080932E
:1007A0008100809181008160809381008091800030
:1007B0008160809380008091B10084608093B1005B
:1007C0008091B00081608093B00080917A00846055
:1007D00080937A0080917A00826080937A00809181
:1007E0007A00816080937A0080917A00806880939B
:1007F0007A001092C10082E00E94B8028EE291E07D
:100800000E940F0222242A94322C4AE0442E512CBA
:10081000612C712C51E05093BF010E946B0100913B
:10082000AF011091B0012091B1013091B201AB0143
:10083000BC01401B510B620B730B8091BB0190916B
:10084000BC01B0E0A0E084179507A607B70708F041
:1008500006C110E08091B901181760F4E091B5016C
:10086000F091B601E10FF11D62E080810E942F013D
:100870001F5FF0CFF12C8091BA01F81608F063C029
:10088000CF2CD12CE091B701F091B801EC0DFD1DFA
:1008900061E080810E942F01E091B701F091B801E1
:1008A000EC0DFD1D60E080810E94010181E090E07F
:1008B000A0E0B0E00F2C04C0880F991FAA1FBB1F37
:1008C0000A94D2F74C015C01A094B094E12C809181
:1008D000B901E81608F50E2D10E0E091B501F09190
:1008E000B601E00FF11F80810E94D8000C5F1F4FFE
:1008F000000F111FF801ED5AFE4F892B41F4808142
:1009000091818829992991838083E394E0CF808124
:1009100091818A219B21F7CFE091B701F091B80135
:10092000EC0DFD1D61E080810E9401018091B70105
:100930009091B801C80ED91E60E0F60180810E9436
:100940002F01F39498CF03E511E0F801878D90A172
:10095000892B21F4148E368E258E11A2369651E005
:10096000EF38F50799F7F12C8091B901F81608F0E6
:1009700053C0E12CCF2CD12CCC0CDD1CC601855AE8
:100980009E4F6C012091BA01E21608F043C0F601B7
:10099000608171810E2C02C0769567950A94E2F70A
:1009A000F29E900111242E0D311DE3E5F1E080E06F
:1009B000458D568D2417350709F4B3C08F5F3696E1
:1009C0008A30B1F760FF24C0E3E5F1E090E080E019
:1009D000448D411118C0E091B301F091B401E20FD0
:1009E000F31F408156E0589FF001599FF00D1124EC
:1009F000ED5AFE4F448F368F258F10A2178E61E07F
:100A00000E94770105C0019636968A30910501F75C
:100A1000E394B8CFF394A8CFF12CF80181A1811110
:100A2000F82E0A5F1F4FF1E00F381F07B1F70E9441
:100A30006B016093AF017093B0018093B10190930B
:100A4000B201FF2061F080917401882341F0809110
:100A5000720190917301F0906F01019719F010925B
:100A6000BF01F12CE091D501E23008F056C0E15011
:100A7000F0E0EE53FE4F848980680E94B2028EE35C
:100A800091E00E940F020E946B0128EE33E040E0EB
:100A900050E00E940A0619A28E010F5D1F4FCA0185
:100AA000B901A30192010E940A06605DF8016293F8
:100AB0008F01211531054105510589F7309761F006
:100AC00001900020E9F73197AF01401B510BB801AD
:100AD00082EC91E00E94DE01FF20B9F0E091D501A7
:100AE000E230E8F4E150F0E0EE53FE4F8489875F96
:100AF00080680E94B20284E491E00E940F0241E00B
:100B00006F2D82EC91E00E945F0280E090E0892BE3
:100B100009F480CE0E9400007DCEE1E0A9CFE1E0A3
:100B2000E2CF61706DCF1092C5011092C40186E2D0
:100B300091E09093C3018093C2018EE08093C6013F
:100B40008FEF8093C7018FE08093C80180E180938D
:100B5000C90181E18093CA0182E18093CB0183E1E5
:100B60008093CC011092CD011092CE011092CF0152
:100B70001092D0011092D10181E00E94B80210922F
:100B80005501109259011092580110925A018CE1AE
:100B900091E09093540180935301EFE6F1E01082CD
:100BA000148213821582369681E0EB3AF807B9F782
:100BB00084E091E09093B6018093B50180E091E0EC
:100BC0009093B8018093B70184E08093B90180933A
:100BD000BA0188E091E09093B4018093B3018AE078
:100BE00090E09093BC018093BB0184EF91E09093DF
:100BF000BE018093BD011092C1011092C0011092FC
:100C0000AF011092B0011092B1011092B201109296
:100C1000BF010895A1E21A2EAA1BBB1BFD010DC046
:100C2000AA1FBB1FEE1FFF1FA217B307E407F5079C
:100C300020F0A21BB30BE40BF50B661F771F881F78
:100C4000991F1A9469F760957095809590959B010E
:100C5000AC01BD01CF010895EE0FFF1F0590F49187
:080C6000E02D0994F894FFCF88
:100C680006070809050403023738392F3435365882
:100C78003132332D23303D2B00000000D301D70142
:100C8800DB01000000005E03DE010C020B024B4595
:100C980059504144204C4344205445535400534533
:0A0CA800433D20004B45593D20005C
:00000001FF
