:100000000C9462000C948A000C948A000C948A0070
:100010000C948A000C948A000C948A000C948A0038
:100020000C948A000C948A000C948A000C948A0028
:100030000C948A000C948A000C948A000C948A0018
:100040000C9440040C948A000C94B0040C948A0420
:100050000C948A000C948A000C948A000C948A00F8
:100060000C948A000C948A000000000023002600F3
:10007000290000000000240027002A0000000000E2
:10008000250028002B0004040404040404040202D4
:100090000202020203030303030301020408102007
:1000A0004080010204081020010204081020000012
:1000B0000008000201000003040700000000000027
:1000C0000000270511241FBECFEFD8E0DEBFCDBF53
:1000D00011E0A0E0B1E0E0E0F0E102C005900D9297
:1000E000A633B107D9F721E0A6E3B1E001C01D9224
:1000F000A83FB207E1F710E0C2E6D0E004C02197C4
:10010000FE010E94F807C136D107C9F70E947105A8
:100110000C94FE070C94000090E0FC01E255FF4FA8
:100120002491FC01E656FF4F3491FC01EA57FF4F42
:10013000E491EE23C9F0222339F0233001F1A8F431
:10014000213019F1223029F1F0E0EE0FFF1FE458C1
:10015000FF4FA591B4918FB7F894EC91611126C02F
:1001600030953E233C938FBF08952730A9F0283067
:10017000C9F0243049F7809180008F7D03C08091C1
:1001800080008F7780938000DFCF84B58F7784BD28
:10019000DBCF84B58F7DFBCF8091B0008F778093CC
:1001A000B000D2CF8091B0008F7DF9CF3E2BDACF57
:1001B000CF93DF9390E0FC01E656FF4F24918A57DE
:1001C0009F4FFC0184918823D1F090E0880F991F04
:1001D000FC01EE58FF4FA591B491FC01E458FF4F8C
:1001E000C591D49161110EC09FB7F8948C91E22F04
:1001F000E0958E238C932881E223E8839FBFDF91D3
:10020000CF9108958FB7F894EC91E22BEC938FBFC8
:10021000F6CF3FB7F89480913F0190914001A091B3
:100220004101B091420126B5A89B05C02F3F19F0AE
:100230000196A11DB11D3FBFBA2FA92F982F882766
:10024000BC01CD01620F711D811D911D42E0660F41
:10025000771F881F991F4A95D1F708958F929F9213
:10026000AF92BF92CF92DF92EF92FF920E9409016C
:100270004B015C0184E1C82ED12CE12CF12C0E94B1
:100280000901681979098A099B09683E734081054B
:100290009105A8F321E0C21AD108E108F10888EE1F
:1002A000880E83E0981EA11CB11CC114D104E10486
:1002B000F10429F7FF90EF90DF90CF90BF90AF90BF
:1002C0009F908F900895AF92BF92CF92DF92EF925E
:1002D000FF920F931F93CF93DF936C017B018B01F0
:1002E000040F151FEB015E01AE18BF08C017D10740
:1002F00059F06991D601ED91FC910190F081E02DCA
:10030000C6010995892B79F7C501DF91CF911F911E
:100310000F91FF90EF90DF90CF90BF90AF90089536
:10032000FC01538D448D252F30E0842F90E0821BFB
:10033000930B541710F0CF96089501970895FC0180
:10034000918D828D981761F0A28DAE0FBF2FB11DD8
:100350005D968C91928D9F5F9F73928F90E0089530
:100360008FEF9FEF0895FC01918D828D981731F0EA
:10037000828DE80FF11D858D90E008958FEF9FEF3E
:100380000895FC01918D228D892F90E0805C9F4F14
:10039000821B91098F739927089583E491E00E944D
:1003A000C10121E0892B09F420E0822F089580E02B
:1003B00090E0892B29F00E94CD0181110C9400005E
:1003C0000895FC01A48DA80FB92FB11DA35ABF4FEA
:1003D0002C91848D90E001968F739927848FA68944
:1003E000B7892C93A089B1898C91837080648C9398
:1003F000938D848D981306C00288F389E02D808147
:100400008F7D80830895EF92FF920F931F93CF9378
:10041000DF93EC0181E0888F9B8D8C8D98131AC03F
:10042000E889F989808185FF15C09FB7F894EE8926
:10043000FF896083E889F989808183708064808383
:100440009FBF81E090E0DF91CF911F910F91FF90CE
:10045000EF900895F62E0B8D10E00F5F1F4F0F7376
:100460001127E02E8C8D8E110CC00FB607FCFACF31
:10047000E889F989808185FFF5CFCE010E94E101ED
:10048000F1CFEB8DEC0FFD2FF11DE35AFF4FF08202
:100490009FB7F8940B8FEA89FB8980818062CFCF68
:1004A000CF93DF93EC01888D8823B9F0AA89BB89AB
:1004B000E889F9898C9185FD03C0808186FD0DC096
:1004C0000FB607FCF7CF8C9185FFF2CF808185FFB7
:1004D000EDCFCE010E94E101E9CFDF91CF910895E8
:1004E000089590E080E008958F929F92AF92BF921E
:1004F0000F931F93CF93DF93CDB7DEB7A1970FB6BE
:10050000F894DEBF0FBECDBF19A2423008F44AE016
:100510008E010F5D1F4F842E912CB12CA12CA501B3
:1005200094010E94D607E62FB901CA01EA3044F5CA
:10053000E05DD801EE938D01232B242B252B79F739
:1005400090E080E0109769F0FD0101900020E9F74C
:100550003197AF014A1B5B0BBD0180EE91E00E9419
:100560006301A1960FB6F894DEBF0FBECDBFDF9139
:10057000CF911F910F91BF90AF909F908F90089552
:10058000E95CD7CFFC0101900020E9F73197AF017A
:10059000481B590BBC0180EE91E00C946301CF9392
:1005A000DF93EC0160E08E810E948C0061E08E811F
:1005B0000E948C0060E08E810E948C008BE891E0AC
:1005C0000197F1F7DF91CF910895CF92DF92EF92EB
:1005D000FF920F931F93CF93DF936C017C0187E011
:1005E000E80EF11CD0E0C0E0062F10E0B8010C2EA0
:1005F00002C0759567950A94E2F76170F7018191E1
:100600007F010E948C002196C430D10579F7C60184
:10061000DF91CF911F910F91FF90EF90DF90CF90DE
:100620000C94CF02CF92DF92EF92FF920F931F9321
:10063000CF93DF93EC01F62E642F8C810E948C0007
:100640008D818F3F19F060E00E948C000F2D10E02B
:100650008F8584FF25C06E0187E0C80ED11CF12C68
:10066000E12CB8010E2C02C0759567950A94E2F74B
:100670006170F60181916F010E948C00FFEFEF1A0B
:10068000FF0A88E0E816F10461F7CE01DF91CF910F
:100690001F910F91FF90EF90DF90CF900C94CF02BD
:1006A000B80184E0759567958A95E1F7CE010E94BF
:1006B000E5026F2DCE01DF91CF911F910F91FF9039
:1006C000EF90DF90CF900C94E50240E0682F80EE31
:1006D00091E00C941203CF93DF93823029F4909130
:1006E000EF0198609093EF018093F3011092F40171
:1006F00080E48093F50180E18093F60180E58093AA
:10070000F70161E08091E4010E94D8008091E50149
:100710008F3F19F061E00E94D80061E08091E6010E
:100720000E94D800C0EED1E09E01205E3140809151
:10073000EF0184FD0BC084E090E021962817390773
:1007400044F461E08E810E94D800EECF88E090E012
:10075000F4CF8BE39DE00197F1F760E08091E40135
:100760000E948C0060E08091E6010E948C008091E4
:10077000E5018F3F19F060E00E948C008091EF014D
:1007800084FD39C063E080EE91E00E94E502CBE495
:10079000D6E4CE010197F1F763E080EE91E00E948C
:1007A000E5022197F1F763E080EE91E00E94E50217
:1007B00083E592E00197F1F762E080EE91E00E941C
:1007C000E5028091EF0180620E94650384E08093DE
:1007D000F0018CE00E94650381E00E9465038BE3D9
:1007E0009FE10197F1F782E08093F10186E0DF91CC
:1007F000CF910C94650380620E9465038BE496E4BC
:100800000197F1F78091EF0180620E94650383E513
:1008100092E00197F1F78091EF0180620E946503F9
:10082000D0CF41E00E94120381E090E00895CF9282
:10083000DF92EF92FF926C01990FEE08FF08F7FE2E
:1008400016C041E06DE280EE91E00E94120366273F
:100850007727CB016C197D098E099F094AE00E9418
:1008600074020196FF90EF90DF90CF9008954AE0D8
:10087000C701B601FF90EF90DF90CF900C94740207
:100880001F920F920FB60F9211242F933F938F93C5
:100890009F93AF93BF9380913B0190913C01A091B6
:1008A0003D01B0913E0130913A0123E0230F2D37F5
:1008B00058F50196A11DB11D20933A0180933B018B
:1008C00090933C01A0933D01B0933E0180913F0184
:1008D00090914001A0914101B09142010196A11D6A
:1008E000B11D80933F0190934001A0934101B093CB
:1008F0004201BF91AF919F918F913F912F910F90A6
:100900000FBE0F901F90189526E8230F0296A11D89
:10091000B11DD2CF1F920F920FB60F9211242F93B9
:100920003F934F935F936F937F938F939F93AF9377
:10093000BF93EF93FF9383E491E00E94E101FF9165
:10094000EF91BF91AF919F918F917F916F915F9147
:100950004F913F912F910F900FBE0F901F901895C0
:100960001F920F920FB60F9211242F938F939F9384
:10097000EF93FF93E0915301F09154018081E09156
:100980005901F0915A0182FD1BC0908180915C0158
:100990008F5F8F7320915D01821741F0E0915C01C0
:1009A000F0E0ED5BFE4F958F80935C01FF91EF913E
:1009B0009F918F912F910F900FBE0F901F901895C0
:1009C0008081F4CFCF92DF92EF92FF920F931F932B
:1009D000E82FF92F05C0015011092109310961F1F2
:1009E000908196239417B9F305C00150110921098C
:1009F000310911F1908196239413F7CFC12CD12C9A
:100A0000E12CF12C0AC08FEFC81AD80AE80AF80ABC
:100A10000C151D052E053F0579F08081862384176E
:100A200091F36C2D7D2D8E2D9F2D1F910F91FF9099
:100A3000EF90DF90CF90089560E070E080E090E06C
:100A40001F910F91FF90EF90DF90CF900895E3E416
:100A5000F1E01382128288EE93E0A0E0B0E084839C
:100A60009583A683B78384E091E09183808385ECAE
:100A700090E09587848784EC90E09787868780EC68
:100A800090E0918B808B81EC90E0938B828B82EC59
:100A900090E0958B848B86EC90E0978B868B118E03
:100AA000128E138E148EE0EEF1E01382128286E134
:100AB00091E0918380838AE084838FEF858389E04E
:100AC000868385E0878384E0808783E0818782E076
:100AD00082871386148615861686178681E00C9405
:100AE0006B03789484B5826084BD84B5816084BDD5
:100AF00085B5826085BD85B5816085BD80916E00BC
:100B0000816080936E0010928100809181008260EC
:100B10008093810080918100816080938100809129
:100B200080008160809380008091B1008460809318
:100B3000B1008091B00081608093B00080917A0014
:100B4000846080937A0080917A00826080937A003A
:100B500080917A00816080937A0080917A00806829
:100B600080937A001092C100E0915301F0915401FA
:100B700082E08083E0914F01F09150011082E0917A
:100B80005101F09152018FEC808310925B01E09152
:100B90005701F091580186E08083E0915501F09172
:100BA0005601808180618083E0915501F09156016A
:100BB000808188608083E0915501F09156018081A9
:100BC00080688083E0915501F091560180818F7D8E
:100BD000808382E00E946B0361E08DE00E94D80078
:100BE00060E08BE00E94D800C3E0D0E093E2E92E01
:100BF000F12C25EAC22E20E0D22E31E9A32E30E0DE
:100C0000B32E40E0842E40E0942E60E08DE00E9400
:100C10008C00CE010197F1F761E08DE00E948C001D
:100C2000C7010197F1F760E08DE00E948C00F601AA
:100C30006491F5018491E82FF0E0EE0FFF1FE85971
:100C4000FF4F8591949100E412E42FE030E0462FAD
:100C50000E94E204611571058105910529F06F5F1D
:100C60007F4F8F4F9F4F9F700E94DD062B013C01ED
:100C700026E933E44BE05DE30E94410720E030E0E9
:100C800040E05FE30E9441070E94A506709339018E
:100C9000609338012EE338EE49E55CE3C301B2010D
:100CA0000E94410720E030E040E05FE30E944107FE
:100CB0000E94A5067093370160933601E1E08091B0
:100CC000F3018111E0E0E195F0E0E052FE4F84890C
:100CD00080680E9465038EE191E00E94C2028091CB
:100CE0003801909139010E94170489E291E00E9435
:100CF000C2020E942E01E091F301E23020F5E150A2
:100D0000F0E0E052FE4F848980680E9465038EE126
:100D100091E00E94C20280913601909137010E94B9
:100D200017048EE291E00E94C2020E942E018114FB
:100D3000910409F46ACF0E94CD01882309F465CF9C
:100D40000E94000062CFE1E0DBCF0E94AC06689415
:100D5000B1110C943B0708950E94200788F09F571B
:100D600098F0B92F9927B751B0F0E1F0660F771FCF
:100D7000881F991F1AF0BA95C9F714C0B13091F0C5
:100D80000E943A07B1E008950C943A07672F782F34
:100D90008827B85F39F0B93FCCF38695779567958A
:100DA000B395D9F73EF490958095709561957F4FF6
:100DB0008F4F9F4F0895E89409C097FB3EF490959C
:100DC0008095709561957F4F8F4F9F4F9923A9F024
:100DD000F92F96E9BB279395F695879577956795B3
:100DE000B795F111F8CFFAF4BB0F11F460FF1BC0F7
:100DF0006F5F7F4F8F4F9F4F16C0882311F096E98A
:100E000011C0772321F09EE8872F762F05C0662337
:100E100071F096E8862F70E060E02AF09A95660FF0
:100E2000771F881FDAF7880F9695879597F90895A9
:100E300057FD9058440F551F59F05F3F71F047958B
:100E4000880F97FB991F61F09F3F79F08795089570
:100E5000121613061406551FF2CF4695F1DF08C08F
:100E6000161617061806991FF1CF869571056105AC
:100E700008940895E894BB2766277727CB0197F954
:100E800008950E9454070C94C5070E94B70738F0D4
:100E90000E94BE0720F0952311F00C94AE070C942D
:100EA000B40711240C943B070E94180770F3959F18
:100EB000C1F3950F50E0551F629FF001729FBB2751
:100EC000F00DB11D639FAA27F00DB11DAA1F649FED
:100ED0006627B00DA11D661F829F2227B00DA11DA0
:100EE000621F739FB00DA11D621F839FA00D611D26
:100EF000221F749F3327A00D611D231F849F600D47
:100F0000211D822F762F6A2F11249F5750409AF06F
:100F1000F1F088234AF0EE0FFF1FBB1F661F771FFB
:100F2000881F91505040A9F79E3F510580F00C94C6
:100F3000AE070C943B075F3FE4F3983ED4F38695ED
:100F400077956795B795F795E7959F5FC1F7FE2B66
:100F5000880F911D9695879597F9089597F99F6742
:100F600080E870E060E008959FEF80EC0895002431
:100F70000A941616170618060906089500240A94FE
:100F800012161306140605060895092E0394000C84
:100F900011F4882352F0BB0F40F4BF2B11F460FF13
:100FA00004C06F5F7F4F8F4F9F4F0895A1E21A2EAD
:100FB000AA1BBB1BFD010DC0AA1FBB1FEE1FFF1FFD
:100FC000A217B307E407F50720F0A21BB30BE40B4D
:100FD000F50B661F771F881F991F1A9469F7609594
:100FE0007095809590959B01AC01BD01CF0108954E
:100FF000EE0FFF1F0590F491E02D0994F894FFCFB8
:10100000000000000302630190015002C1019F0132
:10101000B301000000001104630171027002446911
:101020007374616E63653D200020636D200020694C
:061030006E636820000061
:00000001FF
