:100000000C9462000C948A000C948A000C948A0070
:100010000C948A000C948A000C948A000C948A0038
:100020000C948A000C948A000C948A000C948A0028
:100030000C948A000C948A000C948A000C948A0018
:100040000C940D050C948A000C947D050C945705B6
:100050000C948A000C948A000C948A000C948A00F8
:100060000C948A000C948A000000000024002700F1
:100070002A0000000000250028002B0000000008D6
:10008000000201000003040700000000000000005F
:1000900000000000230026002900040404040404D6
:1000A0000404020202020202030303030303010227
:1000B00004081020408001020408102001020408F6
:1000C0001020AF0511241FBECFEFD8E0DEBFCDBF9B
:1000D00011E0A0E0B1E0E8E1F3E102C005900D928B
:1000E000A034B107D9F722E0A0E4B1E001C01D922D
:1000F000A131B207E1F710E0C2E6D0E004C02197D9
:10010000FE010E948409C136D107C9F70E941A0670
:100110000C948A090C940000CF92DF92EF92FF9228
:10012000CF93DF93B091ED01A0E08111AB2F8091CF
:10013000EE0190E0880F991FAC0140575F4FC090CF
:10014000F301D090F401E090F501F090F60130E079
:1001500020E0FA01C591D491E881B90190E080E0F6
:10016000EB23EA130AC02F5F3F4F6C157D058E0508
:100170009F0578F36FEF7FEFCB01DF91CF91FF9079
:10018000EF90DF90CF900895FC01538D448D252F83
:1001900030E0842F90E0821B930B541710F0CF9621
:1001A000089501970895FC01918D828D981761F053
:1001B000A28DAE0FBF2FB11D5D968C91928D9F5F6A
:1001C0009F73928F90E008958FEF9FEF0895FC0149
:1001D000918D828D981731F0828DE80FF11D858DFC
:1001E00090E008958FEF9FEF0895FC01918D228D8F
:1001F000892F90E0805C9F4F821B91098F73992714
:100200000895FC01A48DA80FB92FB11DA35ABF4FAB
:100210002C91848D90E001968F739927848FA68905
:10022000B7892C93A089B1898C91837080648C9359
:10023000938D848D981306C00288F389E02D808108
:100240008F7D80830895EF92FF920F931F93CF933A
:10025000DF93EC0181E0888F9B8D8C8D98131AC001
:10026000E889F989808185FF15C09FB7F894EE89E8
:10027000FF896083E889F989808183708064808345
:100280009FBF81E090E0DF91CF911F910F91FF9090
:10029000EF900895F62E0B8D10E00F5F1F4F0F7338
:1002A0001127E02E8C8D8E110CC00FB607FCFACFF3
:1002B000E889F989808185FFF5CFCE010E9401018F
:1002C000F1CFEB8DEC0FFD2FF11DE35AFF4FF082C4
:1002D0009FB7F8940B8FEA89FB8980818062CFCF2A
:1002E000CF93DF93EC01888D8823B9F0AA89BB896D
:1002F000E889F9898C9185FD03C0808186FD0DC058
:100300000FB607FCF7CF8C9185FFF2CF808185FF78
:10031000EDCFCE010E940101E9CFDF91CF91089589
:1003200089E491E00E94F50021E0892B09F420E0A6
:10033000822F089580E090E0892B29F00E9490019F
:1003400081110C940000089590E0FC01E458FF4FE7
:100350002491FC01E255FF4F3491FC01E656FF4F1A
:10036000E491EE23C9F0222339F0233001F1A8F4FF
:10037000213019F1223029F1F0E0EE0FFF1FEE5885
:10038000FF4FA591B4918FB7F894EC91611126C0FD
:1003900030953E233C938FBF08952730A9F0283035
:1003A000C9F0243049F7809180008F7D03C080918F
:1003B00080008F7780938000DFCF84B58F7784BDF6
:1003C000DBCF84B58F7DFBCF8091B0008F7780939A
:1003D000B000D2CF8091B0008F7DF9CF3E2BDACF25
:1003E000CF93DF9390E0FC01E255FF4F24918656B6
:1003F0009F4FFC0184918823D1F090E0880F991FD2
:10040000FC01E859FF4FA591B491FC01EE58FF4F54
:10041000C591D491623071F49FB7F8943C91822FCA
:10042000809583238C93E8812E2B28839FBFDF91B7
:10043000CF9108958FB7F894EC912E2B2C938FBF0A
:10044000F6CF3FB7F8948091410190914201A0917D
:100450004301B091440126B5A89B05C02F3F19F078
:100460000196A11DB11D3FBFBA2FA92F982F882734
:10047000BC01CD01620F711D811D911D42E0660F0F
:10048000771F881F991F4A95D1F708958F929F92E1
:10049000AF92BF92CF92DF92EF92FF924B015C013D
:1004A0000E9421026B017C010E9421026C197D09CE
:1004B0008E099F09683E734081059105A8F321E0EC
:1004C000821A9108A108B10888EEC80E83E0D81EF0
:1004D000E11CF11C81149104A104B10429F7FF90DF
:1004E000EF90DF90CF90BF90AF909F908F90089546
:1004F000CF92DF92EF92FF920F931F93CF93DF93F0
:10050000CDB7DEB7C054D1400FB6F894DEBF0FBEF2
:10051000CDBF2FB7F8948091450190914601A091ED
:100520004701B09148012FBF4091EF015091F00178
:100530006091F1017091F2018C019D01041B150B7A
:10054000260B370BB901A801403D574061057105E5
:1005500090F48091F701C05CDE4F0FB6F894DEBFD7
:100560000FBECDBFDF91CF911F910F91FF90EF9004
:10057000DF90CF9008958093EF019093F001A093C6
:10058000F101B093F2011092EA011092E901109288
:10059000E8011092E7011092E60162E08091EB0120
:1005A0000E94F00161E070E080E090E00E9446026D
:1005B00061E08091EB010E94F00160E08091EB012D
:1005C0000E94A4018091EC018551823020F58BE2DC
:1005D00091E10197F1F762E08091EB010E94F00157
:1005E0008091F80190E08230910538F0880F991FD2
:1005F000880F991F05970197F1F7F89480E00E9402
:100600008C006F3F7F4F8F4F9F4F61F41092F70127
:10061000789480E0A0CF64E170E080E090E00E94F8
:100620004602D9CF81E00E948C006F3F7F4F8F4FF1
:100630009F4F61F38E010F5F1F4F6E018FEBC81A42
:100640008EEFD80A780180E00E948C00F701608369
:1006500071838283938381E00E948C00F70164831D
:10066000758386839783F8E0EF0EF11CEC14FD048C
:1006700051F7789430E020E0F801C080D180E2802A
:10068000F3804481558166817781FFEFCF16DF06C5
:10069000EF06FF0631F04F3F8FEF580768077807E6
:1006A00019F41092F701B5CFF90183E0F595E795BC
:1006B0008A95E1F7EA51FE4F8081880FC416D5066E
:1006C000E606F70610F180832F5F3F4F085F1F4F4C
:1006D0002832310589F64091EA012091E6018091A6
:1006E000E701280F3327331F8091E801280F311DC0
:1006F0008091E901820F932F911D992748171906C0
:1007000081F681E08093F70126CF8160DCCFAF9244
:10071000BF92CF92DF92EF92FF920F931F93CF93EE
:10072000DF936C017B018B01040F151FEB015E0150
:10073000AE18BF08C017D10759F06991D601ED91E5
:10074000FC910190F081E02DC6010995892B79F784
:10075000C501DF91CF911F910F91FF90EF90DF9036
:10076000CF90BF90AF900895089590E080E00895F5
:10077000FC0101900020E9F73197AF01481B590BAC
:10078000BC0189EF91E00C948703CF93DF93EC01D8
:1007900060E08E810E94A40161E08E810E94A4012C
:1007A00060E08E810E94A4018BE891E00197F1F74F
:1007B000DF91CF910895CF92DF92EF92FF920F9346
:1007C0001F93CF93DF936C017C0187E0E80EF11C4F
:1007D000D0E0C0E0062F10E0B8010C2E02C07595E5
:1007E00067950A94E2F76170F70181917F010E9499
:1007F000A4012196C430D10579F7C601DF91CF91CC
:100800001F910F91FF90EF90DF90CF900C94C50354
:10081000CF92DF92EF92FF920F931F93CF93DF93CC
:10082000EC01F62E642F8C810E94A4018D818F3FF4
:1008300019F060E00E94A4010F2D10E08F8584FF65
:1008400025C06E0187E0C80ED11CF12CE12CB80147
:100850000E2C02C0759567950A94E2F76170F60157
:1008600081916F010E94A401FFEFEF1AFF0A88E057
:10087000E816F10461F7CE01DF91CF911F910F913E
:10088000FF90EF90DF90CF900C94C503B80184E007
:10089000759567958A95E1F7CE010E94DB036F2D70
:1008A000CE01DF91CF911F910F91FF90EF90DF90DC
:1008B000CF900C94DB0340E0682F89EF91E00C941B
:1008C0000804CF93DF93823029F490910802986056
:1008D0009093080280930C0210920D0280E48093A2
:1008E0000E0280E180930F0280E58093100261E0A8
:1008F0008091FD010E94F0018091FE018F3F19F06F
:1009000061E00E94F00161E08091FF010E94F0012E
:10091000C9EFD1E09E01295F31408091080284FD3A
:100920000BC084E090E021962817390744F461E079
:100930008E810E94F001EECF88E090E0F4CF8BE34F
:100940009DE00197F1F760E08091FD010E94A40114
:1009500060E08091FF010E94A4018091FE018F3F21
:1009600019F060E00E94A4018091080284FD39C062
:1009700063E089EF91E00E94DB03CBE4D6E4CE0193
:100980000197F1F763E089EF91E00E94DB03219783
:10099000F1F763E089EF91E00E94DB0383E592E0E9
:1009A0000197F1F762E089EF91E00E94DB0380910B
:1009B000080280620E945B0484E0809309028CE05C
:1009C0000E945B0481E00E945B048BE39FE101973E
:1009D000F1F782E080930A0286E0DF91CF910C94D8
:1009E0005B0480620E945B048BE496E40197F1F75C
:1009F0008091080280620E945B0483E592E0019787
:100A0000F1F78091080280620E945B04D0CF41E040
:100A10000E94080481E090E008951F920F920FB6A3
:100A20000F9211242F933F938F939F93AF93BF9374
:100A30008091450190914601A0914701B0914801F4
:100A40003091400123E0230F2D3758F50196A11D69
:100A5000B11D209340018093450190934601A093DE
:100A60004701B09348018091410190914201A091CA
:100A70004301B09144010196A11DB11D8093410134
:100A800090934201A0934301B0934401BF91AF9171
:100A90009F918F913F912F910F900FBE0F901F90BC
:100AA000189526E8230F0296A11DB11DD2CF1F92E3
:100AB0000F920FB60F9211242F933F934F935F9392
:100AC0006F937F938F939F93AF93BF93EF93FF9316
:100AD00089E491E00E940101FF91EF91BF91AF91F4
:100AE0009F918F917F916F915F914F913F912F9146
:100AF0000F900FBE0F901F9018951F920F920FB678
:100B00000F9211242F938F939F93EF93FF93E09174
:100B10005901F0915A018081E0915F01F0916001EB
:100B200082FD1BC09081809162018F5F8F73209145
:100B30006301821741F0E0916201F0E0E75BFE4F54
:100B4000958F80936201FF91EF919F918F912F91EB
:100B50000F900FBE0F901F9018958081F4CFE9E49D
:100B6000F1E01382128288EE93E0A0E0B0E084838B
:100B70009583A683B78380E291E09183808385EC9F
:100B800090E09587848784EC90E09787868780EC57
:100B900090E0918B808B81EC90E0938B828B82EC48
:100BA00090E0958B848B86EC90E0978B868B118EF2
:100BB000128E138E148EE9EFF1E01382128282E31B
:100BC00091E09183808387E084838FEF858386E043
:100BD000868385E0878384E0808783E0818782E065
:100BE00082871386148615861686178681E00E94F2
:100BF0006104A6EEB1E088E015968C9315978BE022
:100C000016968C931697E6EBF0E0E4911796EC932A
:100C10001797E2EAF0E0E4911896EC93189740E811
:100C20005EE360E070E01D964D935D936D937C9361
:100C300050970895789484B5826084BD84B58160AE
:100C400084BD85B5826085BD85B5816085BD809197
:100C50006E00816080936E0010928100809181000F
:100C60008260809381008091810081608093810007
:100C7000809180008160809380008091B1008460C9
:100C80008093B1008091B00081608093B00080912A
:100C90007A00846080937A0080917A0082608093E9
:100CA0007A0080917A00816080937A0080917A0046
:100CB000806880937A001092C10082E00E946104F3
:100CC00062E08091EB010E94F0012FB7F8948091CF
:100CD000450190914601A0914701B09148012FBF75
:100CE000805D9740A109B1098093EF019093F001D5
:100CF000A093F101B093F20187E38093F8010BE335
:100D00001FE19AE0F92EC0E0D0E02FEDE22E68EE70
:100D100073E080E090E00E9446020E9478028823FF
:100D200049F08091EC018B3028F08D3040F08551F6
:100D30008230A8F160E070E080EC9FE71CC0609119
:100D4000E70170E090E080E00E9456082DEC3CEC5A
:100D50004CEC5DE30E94E2084B015C016091E6010E
:100D600070E090E080E00E9456089B01AC01C50154
:100D7000B4010E94B9070E942508D62E0E9478026D
:100D8000882341F08091EC018C3009F49AC0C8F4BA
:100D90008B3081F160E070E080EC9FE753C06091A0
:100DA000E6017091E70176276727762790E080E0DB
:100DB0000E9454082DEC3CEC4CEC5DE30E94E208F0
:100DC000DACF8551823030F7C090E8016C2D70E0A9
:100DD000762F662766277F778091E901682B90E060
:100DE00080E00E9454082DEC3CEC4CEC5DE30E944A
:100DF000E20883C06091E80170E090E080E00E942A
:100E000054084B015C01C090E901C7FE0AC0AC0167
:100E10009B0160E070E080E89FEB0E94B8074B0107
:100E20005C016C2D6F7070E090E080E00E945608CD
:100E30002DEC3CEC4CEC5DE30E94E208A501940132
:100E40000E94B9070E942508C62E6D2D70E090E023
:100E500080E00E9454089B01AC010E944F0981115F
:100E60000DC06C2D70E090E080E00E9454089B0162
:100E7000AC010E944F09882309F443C081E00E941D
:100E80005B04C8010197F1F7E1E080910C02811148
:100E9000E0E0E195F0E0E750FE4F84898B5F8068E9
:100EA0000E945B048AE391E00E94B803209709F452
:100EB0002ECF0E949001882309F429CF0E940000C0
:100EC00026CFC090E8016C2D70E090E080E00E9499
:100ED00054084B015C016091E9016F7070E090E093
:100EE00080E00E9456082DEC3CEC4CEC5DE30E9447
:100EF000E208A50194010E94B907C7FEA3CF90584C
:100F0000A1CF8C2D6F2D0E947809805D80931401F4
:100F1000905D90931501E09218018D2D0E94780943
:100F2000805D80930701905D90930801E1E08091DE
:100F30000C028111E0E0E195F0E0E750FE4F84897A
:100F400080680E945B048DE091E00E94B803E0910C
:100F50000C02E23058F4E150F0E0E750FE4F848993
:100F600080680E945B0480E091E09ECFE1E0F4CFD6
:100F70005058BB27AA270E94D0070C94A8080E94AB
:100F80009A0838F00E94A10820F039F49F3F19F424
:100F900026F40C9497080EF4E095E7FB0C94910866
:100FA000E92F0E94B90858F3BA176207730784073C
:100FB000950720F079F4A6F50C94DB080EF4E09583
:100FC0000B2EBA2FA02D0B01B90190010C01CA0103
:100FD000A0011124FF27591B99F0593F50F4503EAE
:100FE00068F11A16F040A22F232F342F4427585FA0
:100FF000F3CF469537952795A795F0405395C9F7B8
:101000007EF41F16BA0B620B730B840BBAF091506F
:10101000A1F0FF0FBB1F661F771F881FC2F70EC00E
:10102000BA0F621F731F841F48F4879577956795E1
:10103000B795F7959E3F08F0B0CF9395880F08F0CD
:101040009927EE0F9795879508950E94C10888F01B
:101050009F5798F0B92F9927B751B0F0E1F0660F7C
:10106000771F881F991F1AF0BA95C9F714C0B130BD
:1010700091F00E94DB08B1E008950C94DB08672F23
:10108000782F8827B85F39F0B93FCCF386957795EC
:101090006795B395D9F73EF49095809570956195D5
:1010A0007F4F8F4F9F4F0895E89409C097FB3EF400
:1010B00090958095709561957F4F8F4F9F4F9923A5
:1010C000A9F0F92F96E9BB279395F6958795779523
:1010D0006795B795F111F8CFFAF4BB0F11F460FFE3
:1010E0001BC06F5F7F4F8F4F9F4F16C0882311F03B
:1010F00096E911C0772321F09EE8872F762F05C04F
:10110000662371F096E8862F70E060E02AF09A95E9
:10111000660F771F881FDAF7880F9695879597F9DE
:10112000089597F99F6780E870E060E008959FEF69
:1011300080EC089500240A9416161706180609066E
:10114000089500240A94121613061406050608953D
:10115000092E0394000C11F4882352F0BB0F40F4C5
:10116000BF2B11F460FF04C06F5F7F4F8F4F9F4F05
:10117000089557FD9058440F551F59F05F3F71F087
:101180004795880F97FB991F61F09F3F79F08795EE
:101190000895121613061406551FF2CF4695F1DF77
:1011A00008C0161617061806991FF1CF8695710507
:1011B000610508940895E894BB2766277727CB013B
:1011C00097F908950E94F5080C94A8080E949A08BF
:1011D00038F00E94A10820F0952311F00C9491089A
:1011E0000C94970811240C94DC080E94B90870F341
:1011F000959FC1F3950F50E0551F629FF001729FBC
:10120000BB27F00DB11D639FAA27F00DB11DAA1FCA
:10121000649F6627B00DA11D661F829F2227B00D17
:10122000A11D621F739FB00DA11D621F839FA00DA2
:10123000611D221F749F3327A00D611D231F849FF2
:10124000600D211D822F762F6A2F11249F57504049
:101250009AF0F1F088234AF0EE0FFF1FBB1F661FC4
:10126000771F881F91505040A9F79E3F510580F08D
:101270000C9491080C94DC085F3FE4F3983ED4F39F
:10128000869577956795B795F795E7959F5FC1F731
:10129000FE2B880F911D9695879597F908950E94CA
:1012A0005409880B990B0895990F0008550FAA0B44
:1012B000E0E8FEEF16161706E807F907C0F0121669
:1012C0001306E407F50798F0621B730B840B950B6C
:1012D00039F40A2661F0232B242B252B21F40895C1
:1012E0000A2609F4A140A6958FEF811D811D08955E
:1012F000991B79E004C0991F961708F0961B881F68
:101300007A95C9F780950895EE0FFF1F0590F49127
:08131000E02D0994F894FFCFD1
:101318005248203D2030302E302025200054656D65
:1013280070203D2030302E30204320000000000087
:1013380023018703C4007001F500D300E700000013
:10134800000007058703B503B4034572726F720086
:00000001FF
