:100000000C945D000C9485000C9485000C94850084
:100010000C9485000C9485000C9485000C9485004C
:100020000C9485000C9485000C9485000C9485003C
:100030000C9485000C9485000C9485000C9485002C
:100040000C94C3040C9485000C9433050C940D059A
:100050000C9485000C9485000C9485000C9485000C
:100060000C9485000C94850000000008000201003B
:100070000003040700000000000000000000000072
:10008000250028002B0000000000240027002A0083
:10009000040404040404040402020202020203032E
:1000A0000303030301020408102040800102040836
:1000B0001020010204081020650511241FBECFEF97
:1000C000D8E0DEBFCDBF11E0A0E0B1E0E6E7F2E1AD
:1000D00002C005900D92A034B107D9F722E0A0E448
:1000E000B1E001C01D92A230B207E1F710E0CDE50A
:1000F000D0E004C02197FE010E943309CC35D1071E
:10010000C9F70E94AF050C9439090C94000090E0E7
:10011000FC01EC55FF4F249180579F4FFC018491C7
:10012000882399F090E0880F991FFC01EA57FF4F50
:10013000A591B491FC01E458FF4F859194918FB73C
:10014000F894EC91E22BEC938FBF089590E0FC01C2
:10015000E859FF4F2491FC01EC55FF4F3491FC010D
:10016000E057FF4FE491EE23C9F0222339F023300A
:1001700001F1A8F4213019F1223029F1F0E0EE0F5D
:10018000FF1FE458FF4FA591B4918FB7F894EC91FD
:10019000611126C030953E233C938FBF08952730D0
:1001A000A9F02830C9F0243049F7809180008F7D74
:1001B00003C0809180008F7780938000DFCF84B56B
:1001C0008F7784BDDBCF84B58F7DFBCF8091B0006E
:1001D0008F778093B000D2CF8091B0008F7DF9CF20
:1001E0003E2BDACF3FB7F8948091490190914A01B4
:1001F000A0914B01B0914C0126B5A89B05C02F3FA3
:1002000019F00196A11DB11D3FBFBA2FA92F982F3C
:100210008827BC01CD01620F711D811D911D42E037
:10022000660F771F881F991F4A95D1F70895AF92DF
:10023000BF92CF92DF92EF92FF920F931F93CF93D3
:10024000DF936C017B018B01040F151FEB015E0135
:10025000AE18BF08C017D10759F06991D601ED91CA
:10026000FC910190F081E02DC6010995892B79F769
:10027000C501DF91CF911F910F91FF90EF90DF901B
:10028000CF90BF90AF900895FC01538D448D252FE2
:1002900030E0842F90E0821B930B541710F0CF9620
:1002A000089501970895FC01918D828D981761F052
:1002B000A28DAE0FBF2FB11D5D968C91928D9F5F69
:1002C0009F73928F90E008958FEF9FEF0895FC0148
:1002D000918D828D981731F0828DE80FF11D858DFB
:1002E00090E008958FEF9FEF0895FC01918D228D8E
:1002F000892F90E0805C9F4F821B91098F73992713
:1003000008958DE491E00E94750121E0892B09F4A4
:1003100020E0822F089580E090E0892B29F00E9450
:10032000810181110C9400000895FC01A48DA80F97
:10033000B92FB11DA35ABF4F2C91848D90E0019627
:100340008F739927848FA689B7892C93A089B18947
:100350008C91837080648C93938D848D981306C0E8
:100360000288F389E02D80818F7D80830895EF924C
:10037000FF920F931F93CF93DF93EC0181E0888F5F
:100380009B8D8C8D98131AC0E889F989808185FF2F
:1003900015C09FB7F894EE89FF896083E889F989D1
:1003A00080818370806480839FBF81E090E0DF91D3
:1003B000CF911F910F91FF90EF900895F62E0B8D26
:1003C00010E00F5F1F4F0F731127E02E8C8D8E11E1
:1003D0000CC00FB607FCFACFE889F989808185FF48
:1003E000F5CFCE010E949501F1CFEB8DEC0FFD2FE3
:1003F000F11DE35AFF4FF0829FB7F8940B8FEA8903
:10040000FB8980818062CFCFCF93DF93EC01888D11
:100410008823B9F0AA89BB89E889F9898C9185FD7F
:1004200003C0808186FD0DC00FB607FCF7CF8C910D
:1004300085FFF2CF808185FFEDCFCE010E9495012F
:10044000E9CFDF91CF910895089590E080E008957D
:10045000FB0101900020E9F73197AF01461B570BD4
:10046000DC01ED91FC910280F381E02D09948F92E3
:100470009F92AF92BF92EF92FF920F931F93CF93F1
:10048000DF93CDB7DEB7A1970FB6F894DEBF0FBEEE
:10049000CDBF7C01FA01CB0119A2223008F42AE079
:1004A0008E010F5D1F4F822E912CB12CA12CBF010C
:1004B000A50194010E941109F901CA016A300CF5E5
:1004C000605DD8016E938D01232B242B252B79F7AA
:1004D00090E080E0109721F0BD01C7010E94280242
:1004E000A1960FB6F894DEBF0FBECDBFDF91CF91BE
:1004F0001F910F91FF90EF90BF90AF909F908F90C2
:100500000895695CDECF2F923F924F925F926F9277
:100510007F928F929F92AF92BF92CF92DF92EF9293
:10052000FF921F93CF93DF93EC016A017B01722E40
:10053000AB019601CB01B6010E940C096FE171E09D
:10054000811126C046015701E894B7F82FEF3FEF1D
:100550004FE75FE7C501B4010E940C0981110CC08F
:100560002FEF3FEF4FE75FE7C501B4010E9442075D
:1005700063E271E0181664F02FEF3FEF4FE75FE49E
:10058000C701B6010E949A081816B4F467E271E038
:10059000CE01DF91CF911F91FF90EF90DF90CF9030
:1005A000BF90AF909F908F907F906F905F904F9093
:1005B0003F902F900C9428022FEF3FEF4FE75FEC16
:1005C000C701B6010E94420787FDE0CF20E030E07E
:1005D000A901C701B6010E944207312C212C87FFD7
:1005E0000DC0E881F9810190F081E02D6DE2CE012E
:1005F00009951C01F7FAF094F7F8F09410E060E028
:1006000070E080E09FE3711641F020E030E040E2CE
:1006100051E40E9447071F5FF6CFA70196010E9491
:10062000D6062B013C010E94B9074B015C012AE070
:10063000BC01A401CE010E9437027C01E20CF31C34
:100640001123E1F1C501B4010E94E8079B01AC014F
:10065000C301B2010E94D5064B015C01E881F9811A
:100660000190F081E02D6EE2CE010995E80EF91EB1
:10067000115020F120E030E040E251E4C501B40126
:100680000E949F082B013C010E94B9074B01B12C2D
:10069000A12C2AE0B501A401CE010E943702E80E88
:1006A000F91EC501B4010E94E8079B01AC01C3011A
:1006B000B2010E94D5064B015C01DACFC701DF9180
:1006C000CF911F91FF90EF90DF90CF90BF90AF90B0
:1006D0009F908F907F906F905F904F903F902F9062
:1006E0000895CF93DF93EC0160E08E810E94A60015
:1006F00061E08E810E94A60060E08E810E94A600CB
:100700008BE891E00197F1F7DF91CF910895CF92B7
:10071000DF92EF92FF920F931F93CF93DF936C01C1
:100720007C0187E0E80EF11CD0E0C0E0062F10E06D
:10073000B8010C2E02C0759567950A94E2F76170B6
:10074000F70181917F010E94A6002196C430D10556
:1007500079F7C601DF91CF911F910F91FF90EF9034
:10076000DF90CF900C947103CF92DF92EF92FF92C3
:100770000F931F93CF93DF93EC01F62E642F8C81A0
:100780000E94A6008D818F3F19F060E00E94A600B4
:100790000F2D10E08F8584FF25C06E0187E0C80E05
:1007A000D11CF12CE12CB8010E2C02C07595679577
:1007B0000A94E2F76170F60181916F010E94A60030
:1007C000FFEFEF1AFF0A88E0E816F10461F7CE01A7
:1007D000DF91CF911F910F91FF90EF90DF90CF901D
:1007E0000C947103B80184E0759567958A95E1F7DB
:1007F000CE010E9487036F2DCE01DF91CF911F9113
:100800000F91FF90EF90DF90CF900C94870340E022
:10081000682F8AEE91E00C94B403CF93DF9382307B
:1008200029F49091F90198609093F9018093FD016A
:100830001092FE0180E48093FF0180E1809300022A
:1008400080E5809301028091EE010E9487008091F3
:10085000EF018F3F11F00E9487008091F0010E940C
:100860008700CAEED1E09E012A5E31408091F901F5
:1008700084FD0AC084E090E02196281739073CF4F3
:100880008E810E948700EFCF88E090E0F5CF8BE368
:100890009DE00197F1F760E08091EE010E94A600D3
:1008A00060E08091F0010E94A6008091EF018F3FEF
:1008B00019F060E00E94A6008091F90184FD39C022
:1008C00063E08AEE91E00E948703CBE4D6E4CE0198
:1008D0000197F1F763E08AEE91E00E948703219788
:1008E000F1F763E08AEE91E00E94870383E592E0EE
:1008F0000197F1F762E08AEE91E00E948703809110
:10090000F90180620E94070484E08093FA018CE080
:100910000E94070481E00E9407048BE39FE1019796
:10092000F1F782E08093FB0186E0DF91CF910C9498
:10093000070480620E9407048BE496E40197F1F7B4
:100940008091F90180620E94070483E592E001979B
:10095000F1F78091F90180620E940704D0CF909155
:10096000FD01891710F08FEF890FE82FF0E0E651B5
:10097000FE4F848980680C94070441E00E94B40310
:1009800081E090E008951F920F920FB60F9211240C
:100990002F933F938F939F93AF93BF938091450184
:1009A00090914601A0914701B091480130914401D6
:1009B00023E0230F2D3758F50196A11DB11D20937B
:1009C00044018093450190934601A0934701B09361
:1009D00048018091490190914A01A0914B01B09149
:1009E0004C010196A11DB11D8093490190934A01CC
:1009F000A0934B01B0934C01BF91AF919F918F9108
:100A00003F912F910F900FBE0F901F90189526E8E1
:100A1000230F0296A11DB11DD2CF1F920F920FB6C8
:100A20000F9211242F933F934F935F936F937F9374
:100A30008F939F93AF93BF93EF93FF938DE491E0D8
:100A40000E949501FF91EF91BF91AF919F918F917E
:100A50007F916F915F914F913F912F910F900FBEBA
:100A60000F901F9018951F920F920FB60F9211249E
:100A70002F938F939F93EF93FF93E0915D01F091FC
:100A80005E018081E0916301F091640182FD1BC0F1
:100A90009081809166018F5F8F732091670182172B
:100AA00041F0E0916601F0E0E35BFE4F958F8093AB
:100AB0006601FF91EF919F918F912F910F900FBE43
:100AC0000F901F9018958081F4CFEDE4F1E0138230
:100AD000128288EE93E0A0E0B0E084839583A68341
:100AE000B78385E091E09183808385EC90E09587E2
:100AF000848784EC90E09787868780EC90E0918BE8
:100B0000808B81EC90E0938B828B82EC90E0958BD4
:100B1000848B86EC90E0978B868B118E128E138ED1
:100B2000148EEAEEF1E01382128287E191E0918364
:100B300080838AE084838FEF858389E0868385E0E4
:100B4000878384E0808783E0818782E082871386C1
:100B5000148615861686178681E00C940D04789409
:100B600084B5826084BD84B5816084BD85B58260B2
:100B700085BD85B5816085BD80916E008160809363
:100B80006E001092810080918100826080938100CC
:100B900080918100816080938100809180008160DC
:100BA000809380008091B10084608093B100809137
:100BB000B00081608093B00080917A00846080935F
:100BC0007A0080917A00826080937A0080917A0026
:100BD000816080937A0080917A00806880937A00A7
:100BE0001092C10082E00E940D0481E00E94AF04D7
:100BF0006EE371E08AEE91E00E94280280E00E949C
:100C0000AF046EE371E08AEE91E00E94280283E077
:100C100080930001E0915D01F0915E0182E08083AC
:100C2000E0915901F0915A011082E0915B01F0913D
:100C30005C018FEC808310926501E0916101F0917D
:100C4000620186E08083E0915F01F0916001808124
:100C500080618083E0915F01F09160018081886014
:100C60008083E0915F01F0916001808180688083E2
:100C7000E0915F01F091600180818F7D8083C0E011
:100C8000D0E08091000120E4829FC00111248160A6
:100C900080937C0080917A00806480937A008091B8
:100CA0007A0086FDFCCF6091780070917900072E64
:100CB000000C880B990B0E94EA0723EC35EF44E106
:100CC00051E40E944707AB01BC014093400150939F
:100CD0004101609342017093430122E08DE491E071
:100CE0000E9483026BE271E08DE491E00E94280291
:100CF00080E00E94AF046EE271E08AEE91E00E9413
:100D0000280281E00E94AF046EE371E08AEE91E078
:100D10000E9428024091400150914101609142019E
:100D20007091430122E08AEE91E00E9483026CE31D
:100D300071E08AEE91E00E9428020E94F2004B01CD
:100D40005C0188ECC82ED12CE12CF12C0E94F20021
:100D5000681979098A099B09683E734081059105E4
:100D6000A8F381E0C81AD108E108F10828EE820E44
:100D700023E0921EA11CB11CC114D104E104F104B2
:100D800029F781E00E94AF046EE371E08AEE91E002
:100D90000E942802209709F474CF0E9481018823C1
:100DA00009F46FCF0E9400006CCF5058BB27AA27D0
:100DB0000E94ED060C9460080E94520838F00E94D0
:100DC000590820F039F49F3F19F426F40C944F0889
:100DD0000EF4E095E7FB0C944908E92F0E94710896
:100DE00058F3BA17620773078407950720F079F460
:100DF000A6F50C9493080EF4E0950B2EBA2FA02DB7
:100E00000B01B90190010C01CA01A0011124FF27B7
:100E1000591B99F0593F50F4503E68F11A16F040B2
:100E2000A22F232F342F4427585FF3CF46953795B1
:100E30002795A795F0405395C9F77EF41F16BA0B76
:100E4000620B730B840BBAF09150A1F0FF0FBB1F24
:100E5000661F771F881FC2F70EC0BA0F621F731F6D
:100E6000841F48F4879577956795B795F7959E3FCA
:100E700008F0B0CF9395880F08F09927EE0F97955B
:100E8000879508950E94250808F481E008950E943E
:100E90005B070C9460080E94590858F00E945208A1
:100EA00040F029F45F3F29F00C94490851110C944B
:100EB00094080C944F080E94710868F39923B1F3C9
:100EC000552391F3951B550BBB27AA276217730770
:100ED000840738F09F5F5F4F220F331F441FAA1F04
:100EE000A9F335D00E2E3AF0E0E832D091505040C0
:100EF000E695001CCAF72BD0FE2F29D0660F771F6E
:100F0000881FBB1F261737074807AB07B0E809F053
:100F1000BB0B802DBF01FF2793585F4F3AF09E3FD8
:100F2000510578F00C9449080C9494085F3FE4F361
:100F3000983ED4F3869577956795B795F7959F5F1B
:100F4000C9F7880F911D9695879597F90895E1E067
:100F5000660F771F881FBB1F621773078407BA07C6
:100F600020F0621B730B840BBA0BEE1F88F7E09521
:100F700008950E94790888F09F5798F0B92F992713
:100F8000B751B0F0E1F0660F771F881F991F1AF074
:100F9000BA95C9F714C0B13091F00E949308B1E03E
:100FA00008950C949308672F782F8827B85F39F03D
:100FB000B93FCCF3869577956795B395D9F73EF40D
:100FC00090958095709561957F4F8F4F9F4F0895B5
:100FD000E89409C097FB3EF49095809570956195D3
:100FE0007F4F8F4F9F4F9923A9F0F92F96E9BB2789
:100FF0009395F695879577956795B795F111F8CF05
:10100000FAF4BB0F11F460FF1BC06F5F7F4F8F4F6F
:101010009F4F16C0882311F096E911C0772321F065
:101020009EE8872F762F05C0662371F096E8862FFD
:1010300070E060E02AF09A95660F771F881FDAF754
:10104000880F9695879597F90895990F0008550F81
:10105000AA0BE0E8FEEF16161706E807F907C0F03E
:1010600012161306E407F50798F0621B730B840B46
:10107000950B39F40A2661F0232B242B252B21F420
:1010800008950A2609F4A140A6958FEF811D811DC0
:10109000089597F99F6780E870E060E008959FEFFA
:1010A00080EC089500240A941616170618060906FF
:1010B000089500240A9412161306140605060895CE
:1010C000092E0394000C11F4882352F0BB0F40F456
:1010D000BF2B11F460FF04C06F5F7F4F8F4F9F4F96
:1010E000089557FD9058440F551F59F05F3F71F018
:1010F0004795880F97FB991F61F09F3F79F087957F
:101100000895121613061406551FF2CF4695F1DF07
:1011100008C0161617061806991FF1CF8695710597
:10112000610508940895E894BB2766277727CB01CB
:1011300097F908950E94250808F48FEF08950E94FA
:10114000B2080C9460080E94520838F00E945908B6
:1011500020F0952311F00C9449080C944F081124A9
:101160000C9494080E94710870F3959FC1F3950F39
:1011700050E0551F629FF001729FBB27F00DB11D1B
:10118000639FAA27F00DB11DAA1F649F6627B00DAB
:10119000A11D661F829F2227B00DA11D621F739F94
:1011A000B00DA11D621F839FA00D611D221F749FA2
:1011B0003327A00D611D231F849F600D211D822FE9
:1011C000762F6A2F11249F5750409AF0F1F0882310
:1011D0004AF0EE0FFF1FBB1F661F771F881F91503D
:1011E0005040A9F79E3F510580F00C9449080C949B
:1011F00094085F3FE4F3983ED4F38695779567951E
:10120000B795F795E7959F5FC1F7FE2B880F911D66
:101210009695879597F908950E942508880B990B54
:101220000895A1E21A2EAA1BBB1BFD010DC0AA1F27
:10123000BB1FEE1FFF1FA217B307E407F50720F03F
:10124000A21BB30BE40BF50B661F771F881F991FBA
:101250001A9469F760957095809590959B01AC0103
:10126000BD01CF010895EE0FFF1F0590F491E02D11
:061270000994F894FFCF81
:101276000100000000B70117014401040275015383
:1012860001670100000000BD041701250224026E5B
:10129600616E00696E66006F7666000D0A00205466
:1012A600656D70657261747572652000204320005B
:00000001FF
