:100000000C945D000C9485000C9485000C94850084
:100010000C9485000C9485000C9485000C9485004C
:100020000C9485000C9485000C9485000C9485003C
:100030000C9485000C9485000C9485000C9485002C
:100040000C94C2020C9485000C9485000C948500DD
:100050000C9485000C9485000C9485000C9485000C
:100060000C9485000C94850000000008000201003B
:100070000003040700000000000000000000000072
:10008000250028002B0000000000240027002A0083
:10009000040404040404040402020202020203032E
:1000A0000303030301020408102040800102040836
:1000B00010200102040810208A0311241FBECFEF74
:1000C000D8E0DEBFCDBF11E0A0E0B1E0E0E6F7E0B0
:1000D00002C005900D92AA32B107D9F721E0AAE239
:1000E000B1E001C01D92AB34B207E1F710E0CDE5FD
:1000F000D0E004C02197FE010E94A803CC35D107AF
:10010000C9F70E940C030C94AE030C94000090E01D
:10011000FC01EC55FF4F249180579F4FFC018491C7
:10012000882399F090E0880F991FFC01EA57FF4F50
:10013000A591B491FC01E458FF4F859194918FB73C
:10014000F894EC91E22BEC938FBF089590E0FC01C2
:10015000E859FF4F2491FC01EC55FF4F3491FC010D
:10016000E057FF4FE491EE23C9F0222339F023300A
:1001700001F1A8F4213019F1223029F1F0E0EE0F5D
:10018000FF1FE458FF4FA591B4918FB7F894EC91FD
:10019000611126C030953E233C938FBF08952730D0
:1001A000A9F02830C9F0243049F7809180008F7D74
:1001B00003C0809180008F7780938000DFCF84B56B
:1001C0008F7784BDDBCF84B58F7DFBCF8091B0006E
:1001D0008F778093B000D2CF8091B0008F7DF9CF20
:1001E0003E2BDACF3FB7F89480912F0190913001E8
:1001F000A0913101B091320126B5A89B05C02F3FD7
:1002000019F00196A11DB11D3FBFBA2FA92F982F3C
:100210008827BC01CD01620F711D811D911D42E037
:10022000660F771F881F991F4A95D1F708958F92FF
:100230009F92AF92BF92CF92DF92EF92FF920E9475
:10024000F2004B015C018EE5C82EDD24D394E12C35
:10025000F12C0E94F200681979098A099B09683E0D
:10026000734081059105A8F321E0C21AD108E10885
:10027000F10888EE880E83E0981EA11CB11CC11401
:10028000D104E104F10429F7FF90EF90DF90CF90C3
:10029000BF90AF909F908F900895AF92BF92CF92F2
:1002A000DF92EF92FF920F931F93CF93DF936C0136
:1002B0007B018B01040F151FEB015E01AE18BF0817
:1002C000C017D10759F06991D601ED91FC910190C9
:1002D000F081E02DC6010995892B79F7C501DF91E1
:1002E000CF911F910F91FF90EF90DF90CF90BF9033
:1002F000AF900895089590E080E00895CF93DF9344
:10030000EC0160E08E810E94A60061E08E810E9477
:10031000A60060E08E810E94A6008BE891E0019724
:10032000F1F7DF91CF910895CF92DF92EF92FF9294
:100330000F931F93CF93DF936C017C0187E0E80E4E
:10034000F11CD0E0C0E0062F10E0B8010C2E02C076
:10035000759567950A94E2F76170F70181917F01C5
:100360000E94A6002196C430D10579F7C601DF911D
:10037000CF911F910F91FF90EF90DF90CF900C9451
:100380007E01CF92DF92EF92FF920F931F93CF9354
:10039000DF93EC01F62E642F8C810E94A6008D81E4
:1003A0008F3F19F060E00E94A6000F2D10E08F85AE
:1003B00084FF25C06E0187E0C80ED11CF12CE12C12
:1003C000B8010E2C02C0759567950A94E2F761702A
:1003D000F60181916F010E94A600FFEFEF1AFF0A5C
:1003E00088E0E816F10461F7CE01DF91CF911F910B
:1003F0000F91FF90EF90DF90CF900C947E01B801A9
:1004000084E0759567958A95E1F7CE010E94940185
:100410006F2DCE01DF91CF911F910F91FF90EF9043
:10042000DF90CF900C94940140E0682F83E391E03B
:100430000C94C101CF93DF93823029F49091420153
:10044000986090934201809346011092470180E4A6
:100450008093480180E18093490180E580934A01BF
:10046000809137010E948700809138018F3F11F001
:100470000E948700809139010E948700C3E3D1E088
:100480009E01235331408091420184FD0AC084E0E3
:1004900090E02196281739073CF48E810E9487004E
:1004A000EFCF88E090E0F5CF8BE39DE00197F1F787
:1004B00060E0809137010E94A60060E080913901E0
:1004C0000E94A600809138018F3F19F060E00E94E1
:1004D000A6008091420184FD39C063E083E391E08E
:1004E0000E949401CBE4D6E4CE010197F1F763E0DA
:1004F00083E391E00E9494012197F1F763E083E3A5
:1005000091E00E94940183E592E00197F1F762E0A7
:1005100083E391E00E9494018091420180620E94F5
:10052000140284E0809343018CE00E94140281E075
:100530000E9414028BE39FE10197F1F782E0809320
:10054000440186E0DF91CF910C94140280620E94F6
:1005500014028BE496E40197F1F7809142018062E6
:100560000E94140283E592E00197F1F78091420125
:1005700080620E941402D0CF41E00E94C10181E05C
:1005800090E008951F920F920FB60F9211242F93AF
:100590003F938F939F93AF93BF9380912B01909143
:1005A0002C01A0912D01B0912E0130912A0123E060
:1005B000230F2D3758F50196A11DB11D20932A0157
:1005C00080932B0190932C01A0932D01B0932E01C9
:1005D00080912F0190913001A0913101B0913201B1
:1005E0000196A11DB11D80932F0190933001A0931E
:1005F0003101B0933201BF91AF919F918F913F91A3
:100600002F910F900FBE0F901F90189526E8230F83
:100610000296A11DB11DD2CF789484B5826084BDAD
:1006200084B5816084BD85B5826085BD85B58160F6
:1006300085BD80916E00816080936E001092810074
:10064000809181008260809381008091810081602F
:1006500080938100809180008160809380008091F0
:10066000B10084608093B1008091B000816080937C
:10067000B00080917A00846080937A0080917A0043
:10068000826080937A0080917A00816080937A0002
:1006900080917A00806880937A001092C10082E095
:1006A0000E941A024CE050E06CE071E083E391E0BC
:1006B0000E944D01E0914601E23050F5E150F0E03A
:1006C000ED5CFE4F848980680E9414024FE050E088
:1006D00069E171E083E391E00E944D0100E010E0E8
:1006E000CAE0D0E08CE10E9414020E941701219719
:1006F000C9F7CAE0D0E088E10E9414020E94170105
:100700002197C9F70115110559F30E940000E8CFA0
:10071000E1E0D5CFE3E3F1E01382128284E091E0DF
:10072000918380838CE084838FEF85838BE0868345
:1007300085E0878384E0808783E0818782E0828709
:100740001386148615861686178681E00C941A0285
:10075000EE0FFF1F0590F491E02D0994F894FFCF60
:1007600000000000BC024D017B017A01204172644F
:1007700075696E6F204C43440044656570426C752A
:0A078000654D626564646564000065
:00000001FF
